:100000000C94E8000C94AE060C94E1060C940501E7
:100010000C9405010C9405010C9405010C94050148
:100020000C9405010C9405010C9405010C94050138
:100030000C9405010C9405010C9405010C94050128
:100040000C9405010C9405010C9405010C94050118
:100050000C94050107634236B79BD8A71A39685636
:1000600018AEBAAB558C1D3CB7CC5763BD6DEDFDDA
:10007000753EF6177231BF000000803F0800000097
:10008000BE922449123EABAAAA2ABECDCCCC4C3E8D
:1000900000000080BEABAAAAAA3E00000000BF007C
:1000A0000000803F0000000000084178D3BB438778
:1000B000D1133D190E3CC3BD4282AD2B3E68EC828C
:1000C00076BED98FE1A93E4C80EFFFBE01C4FF7F11
:1000D0003F000000000000407A10F35A00A0724E6A
:1000E00018090010A5D4E80000E87648170000E4DD
:1000F0000B54020000CA9A3B000000E1F505000025
:1001000080969800000040420F000000A086010089
:100110000000102700000000E80300000000640059
:10012000000000000A0000000000010000000000C4
:100130002C76D888DC674F0823DFC1DFAE59E1B1E8
:10014000B796E5E3E453C63AE651997696E8E6C2F7
:100150008426EB898C9B62ED407C6FFCEFBC9C9FFE
:1001600040F2BAA56FA5F490055A2AF75C936B6C20
:10017000F9676DC11BFCE0E40D47FEF520E6B50014
:10018000D0ED902E0300943577050080841E080082
:1001900000204E0A000000C80C333333330F986E32
:1001A00012831141EF8D2114893BE65516CFFEE6EF
:1001B000DB18D1844B381BF77C1D901DA4BBE424B5
:1001C000203284725E228100C9F124ECA1E53D2732
:1001D00011241FBECFE5D8E0DEBFCDBF11E0A0E601
:1001E000B0E0E0E7F0E202C005900D92A03FB10759
:1001F000D9F722E0A0EFB1E001C01D92A730B2070D
:10020000E1F70E940F070C9436100C94000092B393
:100210009F70282F207F922B92BB92B39E7F92BB20
:1002200092B3926092BB00C000C092B39D7F92BB1C
:10023000E7ECF0E03197F1F700C0000022B3F0E105
:100240008F9FC0011124922F9F70892B82BB82B394
:10025000826082BB00C000C082B38D7F82BB8FEC06
:1002600097E00197F1F700C00000089592B39F70E6
:10027000282F207F922B92BB92B3916092BB92B3B6
:10028000926092BB00C000C092B39D7F92BBE7EC2E
:10029000F0E03197F1F700C0000022B3F0E18F9F4A
:1002A000C0011124922F9F70892B82BB82B3826080
:1002B00082BB00C000C082B38D7F82BB8FEC97E011
:1002C0000197F1F700C0000008958FEC81BB8FE12A
:1002D0009EE40197F1F700C0000082E00E94070150
:1002E00088E20E9407018CE00E94070186E00E94DC
:1002F000070181E00E9407018FEC97E00197F1F779
:1003000000C0000008950F931F93CF93DF938A01DD
:10031000811108C0603130F4862F8F7080680E9490
:10032000070109C0813039F4603128F4862F8F70BD
:10033000806C0E940701C0E0D0E003C00E9436013B
:100340002196F801EC0FFD1F80818111F7CFDF911D
:10035000CF911F910F91089581E00E9407018FECCA
:1003600097E00197F1F700C0000080E80E940701C4
:1003700008952FE789EA93E0215080409040E1F70B
:1003800000C0000081E084BB8EEF85BB089580EF44
:1003900084BB8FE685BB8FE097E20197F1F700C041
:1003A000000083B38B3661F018F4873661F00EC01D
:1003B0008D3609F444C08E3649F481E090E008950A
:1003C00087E090E0089583E190E008958FE585BB94
:1003D0008FE097E20197F1F700C0000083B38B35FF
:1003E00059F018F4873559F00DC08D3559F18E3517
:1003F00049F482E090E0089588E090E0089580E07C
:1004000090E008958FE385BB8FE097E20197F1F7C5
:1004100000C0000083B38B3361F018F4873361F0C0
:10042000B8CF8D3391F08E3309F0B3CF83E090E0F5
:10043000089589E090E0089583E690E0089584E0CF
:1004400090E0089585E090E0089586E090E00895BA
:10045000AF92BF92CF92DF92EF92FF920F931F93D2
:10046000CF93DF931092F9011092F8011092F501E9
:100470001092F4011092F1011092F0018CEC0E94A4
:100480000701C091F801D091F9010E94C701CC0F7A
:10049000DD1FC650DE4F99838883E091F801F0910B
:1004A000F901EE0FFF1FE650FE4F808191818336E8
:1004B0009105B1F0805D0E9436018091F801909124
:1004C000F90101969093F9018093F8012FEF81EEE5
:1004D00094E0215080409040E1F700C00000D1CF6F
:1004E0000E94B901C091F801D091F9012197D093F0
:1004F000F901C093F801FE01EE0FFF1FE650FE4F19
:10050000A080B1800091F0011091F101B801012E9D
:10051000000C880B990B0E9454089B01AC0160E011
:1005200070E080E291E40E944D096B017C01B5010D
:10053000BB0C880B990B0E945408A70196010E94DE
:10054000E0086B017C016091F4017091F501072EC8
:10055000000C880B990B0E945408A70196010E9479
:100560003E070E941C087093F5016093F401CD2BA7
:1005700039F00F5F1F4F1093F1010093F001B2CFDC
:10058000CB01DF91CF911F910F91FF90EF90DF9002
:10059000CF90BF90AF9008950E94AC0141E650E02B
:1005A00060E080E00E9483012FEB87E299E0215018
:1005B00080409040E1F700C000000E94AC0140E79D
:1005C00050E060E080E00E9483014FE750E060E08F
:1005D00081E00E9483010E9428029093F30180939E
:1005E000F2012FE788E391E0215080409040E1F74D
:1005F00000C000000E94AC0149E850E060E080E0EB
:100600000E94830148E950E060E081E00E9483019C
:100610000E94280290930602809305020E94AC017A
:1006200044EA50E060E080E00E9483012FE78AE125
:1006300096E0215080409040E1F700C00000109209
:1006400004021092030208958130910521F488B3C9
:10065000886088BB0895892B19F488B3877F88BB8D
:10066000089580910302909104022091F20130914B
:10067000F3012817390784F420916000293661F4CA
:1006800081E090E00E942403109204021092030281
:1006900084E68093600016C0209105023091060226
:1006A000281739077CF480916000843659F480E083
:1006B00090E00E942403109204021092030289E643
:1006C00080936000809103029091040201969093C0
:1006D00004028093030208958130910539F488B3B0
:1006E0008B7F88BB88B3826088BB0895892B31F4E7
:1006F00088B3846088BB88B38D7F88BB08958AB334
:10070000887F8ABB85E886B908958770806487B939
:1007100086B1806486B9349BFECF86B1806186B98C
:1007200087EE93E00197F1F700C0000084B195B126
:100730000895EF92FF920F931F93CF93DF9300D012
:10074000CDB7DEB70E94AC0141EB50E060E080E045
:100750000E9483012FEF84E39CE021508040904071
:10076000E1F700C0000080E00E948503BC01990F02
:10077000880B990B0E94540826EF38E24CE950E4AC
:100780000E94E00820E030E040E251E40E94AA0725
:100790000E941C08F62EE72E862F9E2D8C010E94AB
:1007A000AC010A311105A4F441EC50E060E080E0B6
:1007B0000E94830141ED50E060E081E00E948301EE
:1007C00081E090E00E94240388B3806C88BB3FC026
:1007D00003321105BCF04CED50E060E080E00E9477
:1007E00083014DEE50E060E081E00E94830181E0F2
:1007F00090E00E94240388B38F7B88BB88B3806815
:1008000088BB25C048EF50E060E080E00E94830193
:10081000EF92FF9287E091E09F938F938E010F5F9D
:100820001F4F1F930F930E941A0BA80160E081E0F5
:100830000E94830180E090E00E94240388B38F73BC
:1008400088BB0F900F900F900F900F900F902FEF8D
:1008500089E698E1215080409040E1F700C0000017
:100860000F900F90DF91CF911F910F91FF90EF901C
:1008700008958130910539F488B3806188BB8BB3CA
:1008800080628BBB0895892B31F488B38F7E88BB3F
:100890008BB38F7D8BBB0895EF92FF920F931F93C5
:1008A000CF93DF9300D0CDB7DEB70E94AC014CE010
:1008B00051E060E080E00E94830145E151E060E0AA
:1008C00081E00E9483012FEF84E39CE0215080406F
:1008D0009040E1F700C0000081E00E948503BC0168
:1008E000990F880B990B0E94540820E030E048ECE7
:1008F00052E40E94E00820E030EC4FE754E40E940C
:10090000AA070E941C08F62EE72E862F9E2D8C012A
:100910000E94AC010932110534F546E251E060E075
:1009200080E00E94830143E351E060E081E00E94A7
:10093000830181E090E00E94390481E090E00E9410
:1009400024032FEF88E09DE3215080409040E1F7A1
:1009500000C0000080E090E00E94390480E090E058
:100960000E94240327C04FE351E060E080E00E9432
:100970008301EF92FF928BE491E09F938F938E011E
:100980000F5F1F4F1F930F930E941A0BA80160E087
:1009900081E00E9483012FEF89E698E12150804099
:1009A0009040E1F700C000000F900F900F900F9063
:1009B0000F900F900F900F90DF91CF911F910F919B
:1009C000FF90EF9008950F931F93CF93DF9300D084
:1009D00000D01F92CDB7DEB70E94AC0141E551E0D7
:1009E00060E080E00E9483012FEF84E39CE02150CF
:1009F00080409040E1F700C0000082E00E94850343
:100A0000BC01990F880B990B0E94540820E030E03C
:100A100040EA50E40E94E00823E333E343E350E478
:100A20000E94E00820E030EC4FE754E40E94AA075F
:100A30008E010F5F1F4F21E043E00E94FA0A0E94DF
:100A4000AC0140E651E060E080E00E948301A80133
:100A500060E081E00E9483012FEF89E698E1215058
:100A600080409040E1F700C000000F900F900F9081
:100A70000F900F90DF91CF911F910F9108958AB33E
:100A800080688ABB08958BB380688BBB84E18A95AC
:100A9000F1F78BB38F778BBB089580E090E0DC019A
:100AA00005C0CE990AC00196A11DB11D803C27E268
:100AB000920729E0A207B105A0F3803C9742A94024
:100AC000B10579F11FBC82E08EBD1DBC1CBC80E06D
:100AD00090E0DC010AC0CE9B0FC02CB53DB521369D
:100AE0003A4E50F40196A11DB11D803C27E29207B9
:100AF00029E0A207B10578F3803C9742A940B105EF
:100B000099F08CB59DB5A0E0B0E01EBC81362AEE10
:100B10009207A105B10558F4B695A79597958795C5
:100B200008958FEF9FEF08958EEF9FEF08958EEF5A
:100B30009FEF08958130910521F488B3816288BBCD
:100B40000895892B19F488B38E7D88BB0895CF92C0
:100B5000DF92EF92FF920F931F93CF93DF9300D01A
:100B60001F92CDB7DEB70E94AC014CE051E060E0CF
:100B700080E00E94830144E651E061E081E00E9450
:100B800083012FEF84E39CE0215080409040E1F707
:100B900000C000000E9443050E944D058F3F2FEFCB
:100BA0009207C1F40E94AC0143E751E060E080E0AD
:100BB0000E94830140E851E060E081E00E948301EF
:100BC0008FEF99E628E1815090402040E1F700C086
:100BD0000000E0CFBC0180E090E00E94520826E9CE
:100BE00033E44BE05DE30E94E00820E030E040E8C1
:100BF00050E40E94E00820E030E040E05FE30E9423
:100C0000E0089B01AC0160E070E088EC92E40E9497
:100C10003D070E941C086B017C019B01CB010197E1
:100C20000F97B0F40E94AC0141E951E060E080E030
:100C30000E94830181E090E00E949A058FEF99E67F
:100C400028E1815090402040E1F700C0000030C012
:100C5000203131056CF10E94AC0141EA51E060E0C5
:100C600080E00E948301DF92CF928EEA91E09F9311
:100C70008F938E010F5F1F4F1F930F930E941A0BCC
:100C8000A80160E081E00E94830180E090E00E9482
:100C90009A058FEF99E628E1815090402040E1F7D6
:100CA00000C000000F900F900F900F900F900F90CA
:100CB0000F900F900F90DF91CF911F910F91FF90A8
:100CC000EF90DF90CF9008950E94AC0144EB51E08B
:100CD00061E080E00E94830143EC51E060E081E04C
:100CE0000E9483012FEF84E39CE0215080409040DC
:100CF000E1F700C000000E94AC0141ED51E060E06E
:100D000080E00E94830142EE51E060E081E00E94B9
:100D100083010E94C7018130910519F0029721F0EB
:100D200005C00E94CC0202C00E94E3040E94AC01F4
:100D30000E94B901089581B3837F81BB82B38B7F09
:100D400082BB82B3886082BB0E94B9018BB7806C82
:100D50008BBF85B78B6085BF789408951F920F92E3
:100D60000FB60F9211242F933F934F935F936F937E
:100D70007F938F939F93AF93BF93EF93FF9380E005
:100D800090E00E946C032FEF8EE994E221508040A6
:100D90009040E1F700C0000081E090E00E946C0309
:100DA000FF91EF91BF91AF919F918F917F916F9143
:100DB0005F914F913F912F910F900FBE0F901F9019
:100DC00018951F920F920FB60F9211242F933F93F5
:100DD0004F935F936F937F938F939F93AF93BF9343
:100DE000EF93FF930E946406FF91EF91BF91AF9143
:100DF0009F918F917F916F915F914F913F912F9133
:100E00000F900FBE0F901F9018958AB38F7D8ABBED
:100E10008FEF87BB81E090E00E946C0308950E94F1
:100E200065010E949B060E9405070E947F030E94A5
:100E30003F0581E090E00E9424032FEF88E09DE3CE
:100E4000215080409040E1F700C0000080E090E039
:100E50000E9424030E94990380910302909104024E
:100E600063E070E00E94D20A892B11F40E944C04C6
:100E70000E94A7050E943103EDCF5058BB27AA2737
:100E80000E9455070C94A6080E94980838F00E940A
:100E90009F0820F039F49F3F19F426F40C9495082C
:100EA0000EF4E095E7FB0C948F08E92F0E94B70839
:100EB00058F3BA17620773078407950720F079F48F
:100EC000A6F50C94D9080EF4E0950B2EBA2FA02DA0
:100ED0000B01B90190010C01CA01A0011124FF27E7
:100EE000591B99F0593F50F4503E68F11A16F040E2
:100EF000A22F232F342F4427585FF3CF46953795E1
:100F00002795A795F0405395C9F77EF41F16BA0BA5
:100F1000620B730B840BBAF09150A1F0FF0FBB1F53
:100F2000661F771F881FC2F70EC0BA0F621F731F9C
:100F3000841F48F4879577956795B795F7959E3FF9
:100F400008F0B0CF9395880F08F09927EE0F97958A
:100F5000879508950E94BE070C94A6080E949F08DA
:100F600058F00E94980840F029F45F3F29F00C9453
:100F70008F0851110C94DA080C9495080E94B70858
:100F800068F39923B1F3552391F3951B550BBB27B8
:100F9000AA2762177307840738F09F5F5F4F220FFD
:100FA000331F441FAA1FA9F335D00E2E3AF0E0E8F4
:100FB00032D091505040E695001CCAF72BD0FE2F3E
:100FC00029D0660F771F881FBB1F261737074807D2
:100FD000AB07B0E809F0BB0B802DBF01FF2793588A
:100FE0005F4F3AF09E3F510578F00C948F080C94B7
:100FF000DA085F3FE4F3983ED4F3869577956795DA
:10100000B795F7959F5FC9F7880F911D96958795BE
:1010100097F90895E1E0660F771F881FBB1F6217DD
:1010200073078407BA0720F0621B730B840BBA0B9B
:10103000EE1F88F7E09508950E9423086894B11187
:101040000C94DA0808950E94BF0888F09F5798F022
:10105000B92F9927B751B0F0E1F0660F771F881FBD
:10106000991F1AF0BA95C9F714C0B13091F00E94D7
:10107000D908B1E008950C94D908672F782F8827F4
:10108000B85F39F0B93FCCF3869577956795B395FE
:10109000D9F73EF490958095709561957F4F8F4F6D
:1010A0009F4F0895E89409C097FB3EF49095809572
:1010B000709561957F4F8F4F9F4F9923A9F0F92F1E
:1010C00096E9BB279395F695879577956795B7959C
:1010D000F111F8CFFAF4BB0F11F460FF1BC06F5F82
:1010E0007F4F8F4F9F4F16C0882311F096E911C094
:1010F000772321F09EE8872F762F05C0662371F0B5
:1011000096E8862F70E060E02AF09A95660F771FC8
:10111000881FDAF7880F9695879597F9089597F9BC
:101120009F6780E870E060E008959FEF80EC08958D
:1011300000240A94161617061806090608950024B6
:101140000A9412161306140605060895092E039430
:10115000000C11F4882352F0BB0F40F4BF2B11F4A4
:1011600060FF04C06F5F7F4F8F4F9F4F089557FD03
:101170009058440F551F59F05F3F71F04795880F05
:1011800097FB991F61F09F3F79F08795089512169C
:1011900013061406551FF2CF4695F1DF08C0161648
:1011A00017061806991FF1CF8695710561050894F9
:1011B0000895E894BB2766277727CB0197F9089510
:1011C0000E94F3080C94A6080E94980838F00E9428
:1011D0009F0820F0952311F00C948F080C9495082B
:1011E00011240C94DA080E94B70870F3959FC1F39C
:1011F000950F50E0551F629FF001729FBB27F00DC5
:10120000B11D639FAA27F00DB11DAA1F649F662719
:10121000B00DA11D661F829F2227B00DA11D621F68
:10122000739FB00DA11D621F839FA00D611D221F22
:10123000749F3327A00D611D231F849F600D211D06
:10124000822F762F6A2F11249F5750409AF0F1F089
:1012500088234AF0EE0FFF1FBB1F661F771F881FF2
:1012600091505040A9F79E3F510580F00C948F0893
:101270000C94DA085F3FE4F3983ED4F386957795B3
:101280006795B795F795E7959F5FC1F7FE2B880F98
:10129000911D9695879597F90895FA01EE0FFF1F16
:1012A000309621053105A1F16115710561F4803891
:1012B000BFE39B0749F168949038810561F080385D
:1012C000BFEF9B0741F099234AF5FF3FE105310548
:1012D000210519F1E8940894E795D901AA2329F486
:1012E000AB2FBE2FF85FD0F310C0FF5F70F4A69550
:1012F000E0F7F73950F019F0FF3A38F49F779F93F1
:101300000DD00F9007FC9058089546F00C94950866
:1013100060E070E080E89FE308954FE79F775F9378
:101320004F933F932F930E94480A2F913F914F91E3
:101330005F910E94E0080C94A50929F416F00C9422
:101340008F080C94D9080C9495080E94BF08A8F344
:101350009638A0F707F80F92E8942BE33AEA48EBA7
:101360005FE70E94F6080F920F920F924DB75EB79B
:101370000F920E94900AE4E5F0E00E94D7094F9195
:101380005F91EF91FF91E595EE1FFF1F49F0FE572A
:10139000E0684427EE0F441FFA95E1F74195550B9D
:1013A0000E940A0A0F9007FE0C94FE090895DF932D
:1013B000CF931F930F93FF92EF92DF927B018C01EB
:1013C000689406C0DA2EEF010E94F308FE01E8944B
:1013D000A5912591359145915591A6F3EF010E9474
:1013E0005507FE019701A801DA9469F7DF90EF90A5
:1013F000FF900F911F91CF91DF9108959B01AC0158
:1014000060E070E080E89FE30C94AA070C948F08DA
:101410000C94C40A0E94BF08D8F39923C9F3940F0F
:10142000511DA3F39150504094F059F0882332F0AD
:10143000660F771F881F91505040C1F79E3F51059E
:101440002CF7880F911D9695879597F908955F3F22
:10145000ACF0983E9CF0BB27869577956795B7953D
:1014600008F4B1609395C1F7BB0F58F711F460FF12
:10147000E8CF6F5F7F4F8F4F9F4FE3CF0C94DA0819
:1014800016F00C94C40A0C94950868940C948F0878
:101490000E94BF08A8F39923C1F3AEF3DF93CF9363
:1014A0001F930F93FF92C92FDD2788232AF02197DE
:1014B000660F771F881FDAF720E030E040E85FEB27
:1014C0009FE3883920F0803E38F021968F770E9484
:1014D0003E07ECE7F0E004C00E943E07E9EAF0E0D6
:1014E0000E94D7098B01BE01EC01FB2E6F577109D9
:1014F0007595771F880B990B0E94540828E132E7F5
:1015000041E35FE30E94F308AF2D9801AE01FF9025
:101510000F911F91CF91DF910E9455070C94A6085F
:10152000FA01DC01AA0FBB1F9B01AC01BF5728F4D5
:10153000222733274427507820C0B75190F4AB2F8F
:101540000024469537952795011CA395D2F30020DA
:1015500071F0220F331F441FB395DAF30ED00C94B1
:101560003D0761307105A0E88A07B94630F49B0158
:10157000AC016627772788279078309621F0208362
:1015800031834283538308959F3F31F0915020F47B
:10159000879577956795B795880F911D969587954F
:1015A00097F9089597FB072E16F4009407D077FD5E
:1015B00009D00E94E60A07FC05D03EF4909581957B
:1015C0009F4F0895709561957F4F0895AA1BBB1B8F
:1015D00051E107C0AA1FBB1FA617B70710F0A61B33
:1015E000B70B881F991F5A95A9F780959095BC0154
:1015F000CD010895EF920F931F93CF93DF93E801EE
:1016000047FD02C034E001C034E1042E000C550B4C
:1016100057FF03C0519541955109E32E022F242F06
:10162000AE010E941D0DCE01DF91CF911F910F9150
:10163000EF900895AEE0B0E0E0E2FBE00C940D1016
:101640000D891E8986E08C831A8309838FEF9FE7BB
:101650009E838D83AE01475E5F4F6F89788DCE018B
:1016600001960E943C0BEF81F885E00FF11F10827C
:101670002E96E4E00C942910ABE0B0E0E2E4FBE04D
:101680000C94FF0F6C017B018A01FC01178216820A
:10169000838181FFCCC1CE0101963C01F60193818B
:1016A000F70193FD859193FF81917F01882309F4D0
:1016B000BAC1853239F493FD859193FF81917F0101
:1016C000853229F4B60190E00E94650FE7CF912C96
:1016D000212C312CFFE1F315D8F08B3279F038F45E
:1016E000803279F08332A1F4232D20611DC08D3228
:1016F00061F0803369F4232D216016C0832D826050
:10170000382EE32DE4603E2E2AC0F32DF8601DC074
:1017100037FC2DC020ED280F2A3040F08E32B9F46E
:1017200036FC81C1232D2064322E19C036FE06C03E
:101730008AE0989E200D1124922E11C0EAE02E9E80
:10174000200D1124222EF32DF0623F2E08C08C367E
:1017500021F4832D8068382E02C0883641F4F701C9
:1017600093FD859193FF81917F018111B3CF982FD4
:101770009F7D9554933028F40C5F1F4F9FE399830E
:101780000DC0833631F0833771F0833509F059C0CD
:1017900021C0F801808189830E5F1F4F88248394C4
:1017A000912C530113C02801F2E04F0E511CF80197
:1017B000A080B18036FE03C0692D70E002C06FEFDB
:1017C0007FEFC5010E945A0F4C018201F32DFF7774
:1017D0003F2E16C0280122E0420E511CF801A080C5
:1017E000B18036FE03C0692D70E002C06FEF7FEF5D
:1017F000C5010E944F0F4C01F32DF0683F2E82016E
:1018000033FC1BC0822D90E088169906B0F4B60117
:1018100080E290E00E94650F2A94F4CFF50137FC36
:10182000859137FE81915F01B60190E00E94650FBE
:1018300021102A9421E0821A91088114910471F7F1
:10184000E8C0843611F0893641F5F80137FE07C04B
:1018500060817181828193810C5F1F4F08C060811C
:101860007181072E000C880B990B0E5F1F4FF32D13
:10187000FF763F2E97FF09C09095809570956195F2
:101880007F4F8F4F9F4FF0683F2E2AE030E0A3013B
:101890000E94A10F882E861845C0853731F4232D6C
:1018A0002F7EB22E2AE030E025C0932D997FB92EED
:1018B0008F36C1F018F4883579F0B5C0803719F04B
:1018C000883721F0B0C0E92FE061BE2EB4FE0DC014
:1018D000FB2DF460BF2E09C034FE0AC0292F2660FC
:1018E000B22E06C028E030E005C020E130E002C0A2
:1018F00020E132E0F801B7FE07C06081718182818A
:1019000093810C5F1F4F06C06081718180E090E081
:101910000E5F1F4FA3010E94A10F882E8618FB2D7A
:10192000FF773F2E36FE0DC0232D2E7FA22E891469
:1019300058F434FE0BC032FC09C0832D8E7EA82ED5
:1019400005C0B82CA32C03C0B82C01C0B92CA4FE30
:101950000FC0FE01E80DF11D8081803321F49A2D26
:10196000997EA92E09C0A2FE06C0B394B39404C008
:101970008A2D867809F0B394A3FC11C0A0FE06C09E
:10198000B21488F4280C922C9B180EC0B21460F488
:10199000B60180E290E00E94650FB394F7CFB214D5
:1019A00018F42B1802C0982C212CA4FE10C0B601EC
:1019B00080E390E00E94650FA2FE17C0A1FC03C067
:1019C00088E790E002C088E590E0B6010CC08A2D5F
:1019D000867859F0A1FE02C08BE201C080E2A7FC2C
:1019E0008DE2B60190E00E94650F891438F4B601CB
:1019F00080E390E00E94650F9A94F7CF8A94F301F8
:101A0000E80DF11D8081B60190E00E94650F811004
:101A1000F5CF222009F442CEB60180E290E00E9488
:101A2000650F2A94F6CFF6018681978102C08FEF69
:101A30009FEF2B96E2E10C941B10A9E0B0E0E3E2EB
:101A4000FDE00C9405106A01122FB02E2BE3201735
:101A500020F0FF24F394F00E02C02CE3F22E0F2DA1
:101A600027E0AE014F5F5F4F0E94770EBC014981B6
:101A7000842F8970813031F0E1FC06C0E0FE06C0A1
:101A800090E205C09DE203C09BE201C090E05E2DA4
:101A9000507143FF3CC0911102C083E001C084E05B
:101AA000811718F4212F281B01C020E051110BC011
:101AB000F601822F30E2882319F031938150FBCF59
:101AC000C20ED11C20E0992329F0D6019C93F60187
:101AD00031966F01C6010396E2FE0AC03EE4D601CC
:101AE0003C9341E411964C93119712963C9306C097
:101AF0003EE6F601308341E641833283FC01322F1A
:101B000040E2332309F442C041933150FACF42FFFF
:101B100044C0911102C083E001C084E0811718F431
:101B2000212F281B01C020E051110BC0F601822F8C
:101B300030E2882319F031938150FBCFC20ED11CC3
:101B400020E0992329F0D6019C93F60131966F018C
:101B5000C6010396E2FE0BC039E4D6013C933EE495
:101B600011963C93119736E412963C9307C039E6E0
:101B7000F60130833EE6318336E63283FC01322FB4
:101B800040E2332319F041933150FBCFFC01E20FC7
:101B9000F11D10828EEF9FEFA6C021E030E0911181
:101BA00002C020E030E0161617061CF4FB01319647
:101BB00002C0E1E0F0E02E0F3F1FBB2021F0EB2D33
:101BC000F0E0319602C0E0E0F0E02E0F3F1FE12F81
:101BD000F0E02E173F071CF4121B212F01C020E05C
:101BE0008E2D887159F4F601822F30E2882319F086
:101BF00031938150FBCFC20ED11C20E0992329F0F4
:101C0000D6019C93F60131966F0151110BC0F6017C
:101C1000822F90E3882319F091938150FBCFC20E5D
:101C2000D11C20E00F2D060F9A81342F307144FF14
:101C300003C0913309F40150101624F4093018F050
:101C400008E001C001E0AB0177FF02C040E050E0D6
:101C5000FB01E41BF50BA1E0B0E0AC0FBD1FEA0FE8
:101C6000FB1F8EE2A82E4B01801A91080B2D10E06D
:101C70001195019511094F3FBFEF5B0721F4D60184
:101C8000AC9211966D01641775072CF084169506B9
:101C900014F4818101C080E3415051093196D6018D
:101CA00011967D014017510724F0D6018C936701EE
:101CB000E2CF6417750739F4963320F4953319F49D
:101CC000311101C081E3F6018083F701822F90E298
:101CD000882319F091938150FBCFF701E20FF11D9A
:101CE000108280E090E02996ECE00C9421102830DE
:101CF00008F027E03327DA01990F311D87FD916045
:101D000000966105710539F432602E5F3D9330E332
:101D10002A95E1F708959F3F30F0803871056105FD
:101D200009F03C5F3C5F3D93913008F08068911D65
:101D3000DF93CF931F930F93FF92EF92192F987F0A
:101D40009695E92F96959695E90FFF27E05DFE4F52
:101D500099273327EE24FF24A701E7010590089473
:101D6000079428F4360FE71EF81E491F511D660F11
:101D7000771F881F991F0694A1F70590079428F4F0
:101D8000E70EF81E491F561FC11D770F881F991FA8
:101D9000661F0694A1F70590079428F4F80E491FD2
:101DA000561FC71FD11D880F991F661F771F0694E6
:101DB000A1F70590079420F4490F561FC71FD81F9D
:101DC000990F661F771F881F0694A9F784911095B5
:101DD000177041F0D695C79557954795F794E794B6
:101DE0001A95C1F7E6EDF0E06894159015913591DC
:101DF0006591959105907FE27395E118F10A430B87
:101E0000560BC90BD009C0F7E10CF11E431F561F3A
:101E1000C91FD01D7EF4703311F48A95E6CFE89483
:101E2000015030F0080F0AF40027021708F4202FA1
:101E30002395022F7A3328F079E37D932A95E9F7E9
:101E400010C07D932A9589F60694979567953795E6
:101E500017951794E118F10A430B560BC90BD009DB
:101E600098F023957E9173957A3308F070E37C9314
:101E70002013B8F77E9170617D9330F0839571E304
:101E80007D9370E32A95E1F71124EF90FF900F9175
:101E90001F91CF91DF91992787FD90950895FC01BF
:101EA0000590615070400110D8F7809590958E0F85
:101EB0009F1F0895FC016150704001900110D8F7F8
:101EC000809590958E0F9F1F08950F931F93CF932A
:101ED000DF93FB01238121FD03C08FEF9FEF2CC017
:101EE00022FF16C04681578124813581421753074E
:101EF00044F4A081B1819D012F5F3F4F3183208346
:101F00008C93268137812F5F3F4F3783268314C000
:101F10008B01EC01FB010084F185E02D0995892BF3
:101F2000E1F6D80116968D919C9117970196179618
:101F30009C938E931697CE01DF91CF911F910F91B5
:101F40000895FA01AA27283051F1203181F1E8944F
:101F50006F936E7F6E5F7F4F8F4F9F4FAF4FB1E09C
:101F60003ED0B4E03CD0670F781F891F9A1FA11D97
:101F7000680F791F8A1F911DA11D6A0F711D811D98
:101F8000911DA11D20D009F468943F912AE0269F5D
:101F900011243019305D3193DEF6CF010895462FBC
:101FA0004770405D4193B3E00FD0C9F7F6CF462F9D
:101FB0004F70405D4A3318F0495D31FD4052419306
:101FC00002D0A9F7EACFB4E0A695979587957795C3
:101FD0006795BA95C9F700976105710508959B014A
:101FE000AC010A2E06945795479537952795BA95D3
:101FF000C9F7620F731F841F951FA01D08952F92AC
:102000003F924F925F926F927F928F929F92AF9288
:10201000BF92CF92DF92EF92FF920F931F93CF93D5
:10202000DF93CDB7DEB7CA1BDB0B0FB6F894DEBF6C
:102030000FBECDBF09942A88398848885F846E8492
:102040007D848C849B84AA84B984C884DF80EE80DC
:10205000FD800C811B81AA81B981CE0FD11D0FB6E5
:10206000F894DEBF0FBECDBFED010895F894FFCF09
:10207000693E3E4D6978657220436F6E6669670000
:10208000456E74657220496E74657276616C006984
:102090006E20686F7572733A00456E7465722044E5
:1020A00075726174696F6E00696E206D696E75740A
:1020B00065733A0053657474696E6720446F6E658A
:1020C00000436865636B696E672054656D702E2EE2
:1020D0000054656D7065726174757265204C4F5760
:1020E0000048656174696E672E2E2E0054656D7010
:1020F00065726174757265204849474800436F6F87
:102100006C696E672E2E2E0054656D706572617459
:10211000757265204F4B002564204300436865635A
:102120006B696E6700536F696C204D6F69737475CE
:1021300072652E2E2E004D6F697374757265204C7A
:102140004F57005761746572696E672E2E2E004DD1
:102150006F697374757265204F4B002564202525C7
:1021600000436865636B696E672070482E2E2E00F1
:1021700070483A005761746572204C6576656C2E24
:102180002E2E004572726F723A20436865636B00B1
:102190005761746572204C766C2053656E736F7254
:1021A000005761746572204C6576656C204C4F5702
:1021B000005761746572204C6576656C3A00256441
:1021C00020636D003D3D3D3D204D454E55203D3D3C
:1021D0003D3D0073656C656374206F7074696F6E4C
:1021E00000312D3E204D6978657220436F6E66691F
:1021F0006700322D3E20436865636B207048000005
:00000001FF
